:1000000033C000004CC000004AC0000048C00000DF
:1000100046C0000044C0000042C0000040C00000D4
:100020003EC000003CC000003AC0000038C00000E4
:1000300036C0000034C0000032C0000030C00000F4
:100040002EC000002CC000002AC0000028C0000004
:1000500026C0000024C0000022C0000020C0000014
:100060001EC000001CC0000011241FBECFEFD8E04E
:10007000DEBFCDBF13E0A0E0B1E0E0EEF9E002C0EA
:1000800005900D92AE32B107D9F713E0AEE2B3E0BE
:1000900001C01D92A434B107E1F712D09FC4B0CFC4
:1000A0001F93182F8A3011F48DE0FADF8091C00081
:1000B00085FFFCCF1093C60080E090E01F9108956B
:1000C00089E193E09093410380934003A4D1889504
:1000D00080E090E00895FC018EE0DF011D928A959A
:1000E000E9F7089500D000D020E031E0EDB7FEB789
:1000F0003283218394838383A3D10F900F900F9039
:100100000F90089500D000D02CE031E0EDB7FEB79D
:10011000328321839483838393D10F900F900F9028
:100120000F900895DF93CF9300D0CDB7DEB78F81C6
:1001300098859E01255F3F4FB90101978330910556
:1001400040F4FC01EE0FFF1FE95DFC4F80819181BF
:1001500002C08EE190E000D000D029E131E0EDB79F
:10016000FEB7328321839483838369837A8368D142
:100170000F900F900F900F9089859A8569817A81F1
:1001800076D100D081E291E0EDB7FEB79283818312
:1001900057D10F900F900F900F90CF91DF9108954E
:1001A00000D000D000D0EDB7FEB7319623E030E0AC
:1001B000ADB7BEB712963C932E93119725E231E06E
:1001C0003383228395838483ADDF8DB79EB70696F4
:1001D0000FB6F8949EBF0FBE8DBF0895211531054F
:1001E000B9F02DB73EB72A5030400FB6F8943EBF55
:1001F0000FBE2DBFEDB7FEB7319622E030E0ADB7B0
:10020000BEB712963C932E93119729E331E013C0A9
:10021000ADB7BEB71A970FB6F894BEBF0FBEADBF4D
:10022000EDB7FEB7319621E030E012963C932E9365
:10023000119728E431E033832283558344839783E5
:100240008683718760876EDF2DB73EB7265F3F4F8D
:100250000FB6F8943EBF0FBE2DBF08958AE090E020
:1002600001C18AE090E0FEC0CF93DF93CEE2D3E0FD
:10027000CE0131DF82E890E090932F0380932E032C
:1002800081E391E0909331038093300382E790E023
:1002900090933303809332038EE291E09093350381
:1002A000809334038EEE90E090933703809336036F
:1002B00080ED90E09093390380933803CE01DF9175
:1002C000CF910895E0913C03F0913D030190F081BE
:1002D000E02D309709F0099580E090E00895E091D5
:1002E0003C03F0913D030280F381E02D309709F04B
:1002F00009950895E0913C03F0913D030480F58158
:10030000E02D309709F0099580E090E00895E091A4
:100310003C03F0913D030680F781E02D309709F012
:1003200009950895CF93DF93E901E0913C03F091A3
:100330003D030084F185E02D309709F00995209761
:1003400049F4E0913C03F0913D0384859585019645
:1003500095878487DF91CF91089590933D03809393
:100360003C0308950F931F93CF93DF93EC018B0110
:10037000CB01F3DFFE010995F80184859585DF91B6
:10038000CF911F910F910895CF93DF9381E791E073
:1003900099DF85EA91E0AEDFCBECD1E0CE016BE0F6
:1003A00070E04DED51E020E030E0BCDFCE016CE0CC
:1003B00070E04FEF51E021E030E0B4DFA8DF81E2F0
:1003C00092E098DFCE0160E170E048E552E021E084
:1003D00030E0A8DFCE0161E170E047E752E021E0C4
:1003E00030E0A0DF94DF87E992E084DFCE0165E1B1
:1003F00070E04FEC52E020E030E094DFCE0166E1A7
:1004000070E04FEE52E021E030E08CDF80DF67DF0C
:10041000DF91CF91089528DFBC0184EC91E0A2DF49
:1004200000D000D028E033E0EDB7FEB7328321835F
:100430009483838305D00F900F900F900F900895B1
:10044000A0E0B0E0E5E2F2E0A2C2FE0135966191E3
:1004500071918091400390914103AF0110D020969B
:10046000E2E0B1C26091400370914103F6C19C018A
:10047000AB018091400390914103B90100C0ACE011
:10048000B0E0E4E4F2E073C26C011B018A01FC01FC
:1004900017821682838181FFC4C12E010894411CFA
:1004A000511CF6019381F10193FD859193FF819198
:1004B0001F01882309F4B1C1853239F493FD859178
:1004C00093FF81911F01853221F490E0B601C5D1DF
:1004D000E8CFEE24FF2420E02032B0F48B3269F024
:1004E0008C3228F4803251F0833271F40BC08D329B
:1004F00039F0803349F421602CC02260246029C087
:10050000286027C0206125C027FD2CC0382F30531C
:100510003A3098F426FF08C08E2D880FE82EEE0C96
:10052000EE0CE80EE30E15C08F2D880FF82EFF0C91
:10053000FF0CF80EF30E20620CC08E3221F426FD63
:100540006CC1206406C08C3611F4206802C0883665
:1005500049F4F10193FD859193FF81911F01882357
:1005600009F0BACF982F9554933018F090529330E9
:1005700028F40C5F1F4FFFE3F9830DC0833631F081
:10058000833771F0833509F05CC021C0F8018081A8
:1005900089830E5F1F4F420171E0A72EB12C15C059
:1005A00062E0662E712C600E711EF80180809180D1
:1005B00026FF03C06E2D70E002C06FEF7FEFC40115
:1005C0002C8740D15C0183012C852F7716C052E027
:1005D000652E712C600E711EF8018080918026FFBF
:1005E00003C06E2D70E002C06FEF7FEFC4012C8757
:1005F0001ED15C012C852068830123FD1EC007C02D
:1006000080E290E0B6012C8728D1FA942C858F2DBA
:1006100090E0A816B906A0F310C0F40127FD85915B
:1006200027FF81914F0190E0B6012C8716D12C85D0
:10063000F110FA940894A108B108A114B10469F763
:10064000E9C0843611F0893641F527FF08C0F8016A
:1006500060817181828193810C5F1F4F09C0F80115
:1006600060817181882777FD8095982F0E5F1F4FDD
:100670004FE6B42EB22297FF09C0909580957095F1
:1006800061957F4F8F4F9F4FF0E8BF2AA2012AE06C
:1006900030E00FD1782E741844C0853731F43FEE26
:1006A000B32EB2222AE030E025C099EFB92EB22253
:1006B0008F36C1F0803720F4883509F0AEC00DC008
:1006C000803721F0883709F0A8C002C020E1B22AA3
:1006D000B4FE0BC084E0B82A08C0B4FE09C0E6E04E
:1006E000BE2A06C028E030E005C020E130E002C0AC
:1006F00020E132E0B7FE08C0F8016081718182819B
:1007000093810C5F1F4F07C0F8016081718180E009
:1007100090E00E5F1F4FA201CCD0782E7418FFE737
:10072000BF22B6FE0BC02EEFB2227E1438F4B4FE08
:1007300007C0B2FC05C08FEEB82202C0A72C01C0D2
:10074000AE2C8B2D90E0B4FE0DC0FE01E70DF11D27
:100750002081203319F4E9EEBE2209C0A394B2FE31
:1007600006C004C086789070009709F0A3948B2C83
:100770009924B3FC13C0B0FE0EC0AF1428F4E72CCC
:10078000EF0CEA18AF2C07C0E72C05C080E290E020
:10079000B60163D0A394AF14C8F304C0AF1410F42F
:1007A000FA1801C0FF2484FE0EC080E390E0B60179
:1007B00054D082FE1DC081FE03C088E590E010C0C9
:1007C00088E790E00DC0C40186789070009781F0B2
:1007D00081FC02C080E201C08BE2B7FC8DE290E0B8
:1007E000B6013BD005C080E390E0B60136D0EA9474
:1007F0007E14C8F37A94F201E70DF11D808190E038
:10080000B6012BD07720B1F705C080E290E0B601A9
:1008100024D0FA94FF20C9F744CEF601268137810F
:1008200002C02FEF3FEFC9012C96E2E1BCC0FC01F2
:100830000590615070400110D8F7809590958E0F0B
:100840009F1F0895FC016150704001900110D8F77E
:10085000809590958E0F9F1F08950F931F93CF93B0
:10086000DF938C01EB018B8181FF1BC082FF0DC0E8
:100870002E813F818C819D812817390764F4E8819E
:10088000F9810193F983E88306C0E885F985802F13
:100890000995009731F48E819F8101969F838E8305
:1008A00002C00FEF1FEFC801DF91CF911F910F9191
:1008B0000895FA01AA27283051F1203181F1E894F6
:1008C0006F936E7F6E5F7F4F8F4F9F4FAF4FB1E043
:1008D0003ED0B4E03CD0670F781F891F9A1FA11D3E
:1008E000680F791F8A1F911DA11D6A0F711D811D3F
:1008F000911DA11D20D009F468943F912AE0269F04
:1009000011243019305D3193DEF6CF010895462F62
:100910004770405D4193B3E00FD0C9F7F6CF462F43
:100920004F70405D4A3318F0495D31FD40524193AC
:1009300002D0A9F7EACFB4E0A69597958795779569
:100940006795BA95C9F700976105710508959B01F0
:10095000AC010A2E06945795479537952795BA9579
:10096000C9F7620F731F841F951FA01D08952F9252
:100970003F924F925F926F927F928F929F92AF922F
:10098000BF92CF92DF92EF92FF920F931F93CF937C
:10099000DF93CDB7DEB7CA1BDB0B0FB6F894DEBF13
:1009A0000FBECDBF09942A88398848885F846E8439
:1009B0007D848C849B84AA84B984C884DF80EE8083
:1009C000FD800C811B81AA81B981CE0FD11D0FB68C
:1009D000F894DEBF0FBECDBFED010895F894FFCFB0
:1009E0002020202D2069742025730A00446573633C
:1009F000726962653A25730A001B5B303B25646DA2
:100A0000001B5B6D002020202020202050656E649C
:100A1000696E673A2025730A0020202020202020BC
:100A20004F4B3A2025730A0020202020202020460A
:100A300061696C65643A20257320696E2066696C73
:100A400065202573206174206C696E652025640A19
:100A500000696E7420737472636D70202820636F58
:100A60006E73742063686172202A20737472312C53
:100A700020636F6E73742063686172202A20737420
:100A8000723220290072657475726E732030206F87
:100A90006E6C79207768656E20737472696E677307
:100AA0002061726520657175616C002E2F7465730D
:100AB000742F7372632F746573742E6300287374BC
:100AC00072636D70282268656C6C6F222C2022681E
:100AD000656C6C6F222929203D3D20283229002891
:100AE000737472636D70282268656C6C6F222C20A1
:100AF00022776F726C6422292920213D2028302919
:100B00000072657475726E732061206E6567617422
:100B100069766520696E7465676572207768656EB1
:100B20002073747231206973206C6573732074684C
:100B3000616E20737472320028737472636D702852
:100B40002268656C6C6F222C2022776F726C642295
:100B500029203C2030290028737472636D7028228C
:100B600030313233222C20223133323134333122AE
:100B700029203C2030290072657475726E732061E3
:100B800020706F73697469766520696E7465676536
:100B900072206966207374723120697320677265F0
:100BA00061746572207468616E20737472320028FB
:100BB000737472636D70282279656C6C6F77222C68
:100BC0002022776F726C642229203C203029002873
:100BD000737472636D70282239222C2022373839C1
:100BE0002229203E20302900256420746573747307
:100BF000206661696C65640A000000000200000064
:0E0C0000005000000000001F00200021000036
:00000001FF
